:020000021000EC
:10E000000C9446F00C9465F00C9465F00C9465F05B
:10E010000C9465F00C9465F00C9465F00C9465F02C
:10E020000C9465F00C9465F00C9465F00C9465F01C
:10E030000C9465F00C9465F00C9465F00C9465F00C
:10E040000C9465F00C9465F00C9465F00C9465F0FC
:10E050000C9465F00C9465F00C9465F00C9465F0EC
:10E060000C9465F00C9465F00C94BBF50C9465F081
:10E070000C9463FA0C94F7F90C9465F00C9465F029
:10E080000C9407F10C9465F00C9465F011241FBEFC
:10E09000CFEFD0E4DEBFCDBF11E0A0E0B1E0E6E914
:10E0A000FEEF01E00BBF02C007900D92AC3AB10742
:10E0B000D9F72AE0ACEAB1E001C01D92A73EB20751
:10E0C000E1F70E94FBF10C9449FF0C9400F08F9251
:10E0D0009F92AF92BF92CF92DF92EF92FF928FB753
:10E0E000F894C090B001D090B101E090B201F090EE
:10E0F000B3018FBF460157011CC08091BA019091B6
:10E10000BB010E946BF9892B99F52FB7F894809188
:10E11000B0019091B101A091B201B091B3012FBFB4
:10E1200088199909AA09BB09853F9140A105B10544
:10E1300020F52FB7F8948091B0019091B101A09192
:10E14000B201B091B3012FBF8C199D09AE09BF096F
:10E15000843C9940A105B10580F290E080E0FF90F9
:10E16000EF90DF90CF90BF90AF909F908F900895E9
:10E170008091BA019091BB01F2CF84E00E940EF32E
:10E180008FB7F8948090B0019090B101A090B20147
:10E19000B090B3018FBFCDCF6091B6017091B70140
:10E1A00090E00C94A6FECF92DF92EF92FF928FB791
:10E1B000F894C090B001D090B101E090B201F0901D
:10E1C000B3018FBF09C08091B6019091B7010E9441
:10E1D0006AFE8F3F9807B1F42FB7F8948091B00191
:10E1E0009091B101A091B201B091B3012FBF8C19F0
:10E1F0009D09AE09BF09883E9340A105B10518F3FA
:10E200008FEF9FEFFF90EF90DF90CF9008951F92D8
:10E210000F920FB60F9211240BB60F922F933F93CC
:10E220004F935F936F937F938F939F93AF93BF931E
:10E23000EF93FF938091AC019091AD010196909383
:10E24000AD018093AC018F779927892B19F482E077
:10E250000E940EF38091B0019091B101A091B201A2
:10E26000B091B3010196A11DB11D8093B0019093AF
:10E27000B101A093B201B093B30180E00E94D8F63F
:10E28000FF91EF91BF91AF919F918F917F916F918E
:10E290005F914F913F912F910F900BBE0F900FBE4A
:10E2A0000F901F901895CF92DF92EF92FF920F93ED
:10E2B0001F93CF93DF93CDB7DEB7DA950FB6F894FF
:10E2C000DEBF0FBECDBFC35FDE4FE881F981CD5009
:10E2D000D140AE01415F5E4F9081992309F486C021
:10E2E0008F010F5F1F4F30E020E0DE0111960CC060
:10E2F0009B3281F02A0F3B1FF90190839601F801B0
:10E3000091918F01992399F16901FFEFCF1ADF0AEB
:10E310009D3271F7CA010296FA0140815181B8011C
:10E3200061507109FB0160816B3209F440C0BA0190
:10E33000729562956F7067277F7067276F706A307C
:10E3400090F1695C7D01E20EF31EF70160834F706E
:10E350004A3058F1495CF601EA0FFB1F40832E5FFB
:10E360003F4FAC01F80191918F019111CDCF2A0F50
:10E370003B1FF9011082C55FDE4F68817981CB5068
:10E38000D140CD010E94D6FED3950FB6F894DEBFE2
:10E390000FBECDBFDF91CF911F910F91FF90EF90F6
:10E3A000DF90CF900895605DCDCF405DD4CF652FD5
:10E3B00062956F706A30C0F0695C7D01E20EF31EF9
:10E3C000F7016083652F6F706A3060F0695CF60159
:10E3D000EA0FFB1F60836901F3E0CF0ED11C2E5FB3
:10E3E0003F4FA5CF605DF3CF605DE7CF30E020E029
:10E3F000DE011196BCCFCF93DF93CDB7DEB7C0540B
:10E40000D1090FB6F894DEBF0FBECDBF84B714BEDE
:10E4100083FF10C00FB6F894A895809160008861C2
:10E4200080936000109260000FBEE091AE01F09109
:10E43000AF0109950E94E2F20E9423F30E94FFF2CD
:10E440000E9446F30E94EAF785E00E944CF861E0E2
:10E450008AE00E94D1F89093BB018093BA0160E0FA
:10E460000E945FF960E085E090E00E9473F961E04E
:10E4700081E00E94D1F89093B9018093B80160E0E7
:10E480000E945FF98091B8019091B9019093B50114
:10E490008093B40185B7982F916095BF826085BF46
:10E4A00078942091B8013091B9014FE050E061E0DB
:10E4B00070E082E091E00E94FDFE8091C4009091A6
:10E4C000C500009709F454C08A3F910529F5809151
:10E4D000BA019091BB019093B7018093B60120914E
:10E4E000B8013091B9013093B5012093B4014BE1EB
:10E4F00050E061E070E082E191E00E94FDFE81E089
:10E50000898380EC8A8341E062E070E0CE0101966D
:10E510000E9400FB0E943CFB2091BA013091BB019C
:10E5200044E150E061E070E08EE291E00E94FDFE87
:10E530002091B8013091B90144E150E061E070E010
:10E540008EE291E00E94FDFE88E893E124E131E053
:10E55000F9013197F1F70197D9F788E19CE00FB6FF
:10E56000F894A895809360000FBE90936000FFCF51
:10E570002091BA013091BB014FE050E061E070E0C2
:10E5800082E091E00E94FDFE0E9467F09093B70147
:10E590008093B601009709F4BFCF2091BA01309162
:10E5A000BB018217930729F03093B5012093B40182
:10E5B000B1CF8091B8019091B9019093B50180934A
:10E5C000B401A8CF83EB8093BD018FEB8093BC0196
:10E5D00085B98091BD0184B980E38093BF019FEF2D
:10E5E0009093BE0181B98091BE0182B988ED88B94E
:10E5F00088EC87B98AE28AB983E08BB908951092D2
:10E60000900089E08093910082E0809371008FE216
:10E610009AE290939900809398000895982F9270B1
:10E6200093B990E09C010024369527950794369580
:10E6300027950794322F202D2074880F991F8870FA
:10E64000822B86B9089545E050E024E131E0299815
:10E6500088B1877B88B980E991E0F9013197F1F7BA
:10E660000197D9F7299A88B1886488B980E991E03F
:10E67000F9013197F1F70197D9F74150510939F76D
:10E68000089589B186FB882780F908950E9460F378
:10E6900087E08093B8001092B90084E08093BC00BA
:10E6A00008950F93FC0160834183138A128A258B9E
:10E6B000048B178A168A118E108E128E0F91089570
:10E6C0001092DF011092DE011092D2011092D1015E
:10E6D0001092D5011092D4011092D301E6EDF1E031
:10E6E000108211821282138214821582168217827E
:10E6F0000895CF92DF92EF92FF920F931F93CF93E3
:10E70000DF93C1E065EAF62ED4E903E075ECC72E8D
:10E7100015E8E4E0DE2EF2E0EF2E50C08091DE013D
:10E720009091DF01891709F48CC1E82FF0E0EE0F1A
:10E73000FF1FE052FE4F0190F081E02D8F5F877048
:10E740008093DE01F093D201E093D101309709F478
:10E750006BC01092D0011092CF01109200018489F9
:10E760008093CE0180818093CD0181818093CC0103
:10E77000868997899093CB018093CA01CF014B96EC
:10E780009093C9018093C80101969093C70180932B
:10E79000C60182899389009709F44DC19093C50100
:10E7A0008093C4018091B90010920001C093CF0101
:10E7B000F092BC00809100018130B1F580910001A0
:10E7C000813009F4ABCF2091B900922F987F8091CE
:10E7D000CF01823009F4A7C008F4EAC0833009F4FD
:10E7E00058C0843079F5E091D0018091CE01E817CE
:10E7F00020F50093CF019091CC01911127C1809118
:10E80000C4019091C501E80FF92FF11D808180931B
:10E81000BB001093BC008091D0018F5F8093D0012A
:10E8200080910001813051F2DF91CF911F910F91C2
:10E83000FF90EF90DF90CF9008958091CF018F5F90
:10E840008093CF01E091D101F091D20185898111AE
:10E85000D093BC00C0930001E091C801F091C901C0
:10E860001082E091C601F091C7011082A091D10100
:10E87000B091D2015A968C915A9781119BCFE09119
:10E88000CA01F091CB01309709F494CFCD010995DD
:10E8900091CF8091CC01E091D0018111ECC09832F0
:10E8A00009F4A3CFC0930001A091C801B091C901A0
:10E8B000E150FF0BE295F295F07FFE27E07FFE2707
:10E8C000E360EC93E091C601F091C7019083D0938F
:10E8D000BC00E091CA01F091CB01309729F0809102
:10E8E000D1019091D2010995E091D101F091D2012D
:10E8F0002091DF018091DE0110C0281709F4D6C0F5
:10E90000E82FF0E0EE0FFF1FE052FE4F0190F08184
:10E91000E02D8F5F8770309719F0928D9111EDCFB8
:10E920008093DE0147CF8091CC01811139C09831AD
:10E93000D1F1C0930001E091C801F091C901E082DA
:10E94000E091C601F091C7019083D093BC00E091A3
:10E95000CA01F091CB01309729F08091D1019091BB
:10E96000D2010995E091D101F091D2012091DF010E
:10E970008091DE010FC0821799F2E82FF0E0EE0FD0
:10E98000FF1FE052FE4F0190F081E02D8F5F8770F6
:10E99000309731F2928D9111EECF8093DE010ACF44
:10E9A000813009F47BC0D092CF01E091D0011DCF1E
:10E9B000882309F4F9CE813009F044CF983009F466
:10E9C0004DC0903109F44AC080930001E091C80124
:10E9D000F091C9018083E091C601F091C701908355
:10E9E000D093BC00E091CA01F091CB01309729F09F
:10E9F0008091D1019091D2010995E091D101F091DE
:10EA0000D2012091DF018091DE0111C0281709F4A5
:10EA10004DC0E82FF0E0EE0FFF1FE052FE4F0190D7
:10EA2000F081E02D8F5F8770309709F479CF928D58
:10EA30009111ECCF75CF3296F093C501E093C401EC
:10EA4000B1CE1092D2011092D101EECE8150990B2D
:10EA5000E817190671F1C092BC00DDCEE092CF013B
:10EA60008091CD01880F9091CC01890F8093BB00DC
:10EA70001093BC009FCE813009F0B7CE207F2035A7
:10EA800009F010CF8091BB002091C4013091C501E5
:10EA9000E20FF32FF11D31978083A5CE903409F05A
:10EAA00048CFD092CF01E091D0019FCE2093DE01DC
:10EAB00081CE1093BC00AFCE0F931F93CF93DF9303
:10EAC000CDB7DEB79F81992319F11FB7F8942FB7FF
:10EAD000F8948091DF013091DE01831B2FBF809578
:10EAE00087708917D8F41FBF81E0DF91CF911F9104
:10EAF0000F9108958093DF0180910001811138C04A
:10EB00001FBF8885882321F0809100018823E1F3CD
:10EB100080E0DF91CF911F910F910895FE0139960A
:10EB20008091DF01292F2150330BB90130E020E023
:10EB300001E012C05A960C935A97E82FF0E0EE0FBE
:10EB4000FF1FE052FE4FB183A0838F5F87702F5F5E
:10EB50003F4FFA01291770F6AF014E5F5F4FA0815A
:10EB6000B1812617370731F75A961C925A97E5CF8D
:10EB70000E9479F3C5CF1F920F920FB60F92112406
:10EB80000BB60F922F933F934F935F936F937F93A7
:10EB90008F939F93AF93BF93EF93FF938091C001A7
:10EBA0009091C101A091C201B091C3010196A11D34
:10EBB000B11D8093C0019093C101A093C201B09395
:10EBC000C3010E9479F3FF91EF91BF91AF919F91A3
:10EBD0008F917F916F915F914F913F912F910F9006
:10EBE0000BBE0F900FBE0F901F901895FC01A081D7
:10EBF000B18182819381A80FB91F6C938281938127
:10EC000020853185019682239323938382830895FF
:10EC1000FC01A081B18184819581A80FB91F8C91DD
:10EC200024813581408551852F5F3F4F2423352333
:10EC3000358324830895FC014481558122813381E9
:10EC400081E04217530709F080E00895FC01158226
:10EC50001482138212820895FC01228133818085FF
:10EC60009185448155812F5F3F4F2823392381E0CF
:10EC70002417350709F080E00895FC0122813381D3
:10EC80008481958140855185B901681B790BCB0141
:10EC9000842395230895FC01868197812281338105
:10ECA00064817581408551850197261B370B24238C
:10ECB0003523821B930B0895FC01838D882331F04B
:10ECC0001092F4011092F50181E0089580E008951A
:10ECD000FC01238D211110C082818093F6011092D6
:10ECE000F4018091F601882369F08091F5018F5F2E
:10ECF0008093F50180E008951092F4011092F501DF
:10ED000081E008951092F50180E00895EF92FF925E
:10ED10000F931F93CF938C01DC015B968C915B97D3
:10ED2000811137C054968C91882321F1C0E006C030
:10ED3000CF5FD80154968C91C817E0F4E091F001B0
:10ED4000F091F1017801EC0EF11CD70112968C9133
:10ED5000309729F00995813059F7F7018281682FA2
:10ED600083E796E00E94F6F5CF5FD80154968C9128
:10ED7000C81720F31092F4018091F60181110CC0A4
:10ED80001092F50180E0CF911F910F91FF90EF90CD
:10ED900008951092F401F4CF809101018F5F809368
:10EDA000F50180E0CF911F910F91FF90EF900895B2
:10EDB000CF92DF92EF92FF921F93CF93DF938091D8
:10EDC000F401811163C08091F201811168C09091BA
:10EDD000F50180910101981708F04FC08091F5016D
:10EDE000811104C08091F3018111B6C08DE796E0D6
:10EDF0000E943DF6009709F45DC07C0181E1E816B0
:10EE0000F10408F0A5C0E092620210E08EE4C82E82
:10EE100082E0D82ED0E0C0E08DE796E00E9408F6B0
:10EE2000C25BDD4F8A831F5FC12FD0E0CE15DF05A7
:10EE300098F3DF92CF921F92C1E0CF930E945CF5CE
:10EE40000F900F900F900F9081118FC040916F0223
:10EE50005091700260917102709172024E0D5F1DAF
:10EE6000611D711D40936F02509370026093710297
:10EE700070937202C093F4010AC09091F501891752
:10EE800009F475C09091F5018917D8F080E0DF9101
:10EE9000CF911F91FF90EF90DF90CF900895109247
:10EEA000F20180E0DF91CF911F91FF90EF90DF9012
:10EEB000CF9008958091F5018F5F8093F50180E0F8
:10EEC000E6CF83E796E00E944BF69C019091F60115
:10EED000992309F446C02115310509F442C08091F7
:10EEE000F601813108F462C080E190E0C0E12817AA
:10EEF000390708F4C22F8091F6018C1B8093F6012C
:10EF000087EF91E0C0930B029F938F931F92D1E004
:10EF1000DF930E945CF50F900F900F900F9081117E
:10EF200024C040916B0250916C0260916D0270910F
:10EF30006E024C0F511D611D711D40936B02509369
:10EF40006C0260936D0270936E02D093F4019FCFB8
:10EF500090E1E92EF12C57CF809301011092F3013B
:10EF600045CF1092F50180E092CF82E090CF83E709
:10EF700096E00E944BF6892BA1F384E192E09F93E7
:10EF80008F9381E392E09F938F931F9282E08F9300
:10EF90000E945CF50F900F900F900F900F900F90C4
:10EFA0008111E3CF91E09093F40171CFC091F6010C
:10EFB0008C2F90E09CCF1092F401FC01838D811185
:10EFC00007C08091F5018F5F8093F50180E008957F
:10EFD00081E008950F931092F201EDE7F6E083E7E8
:10EFE00094E09183808320E032E0378326838FEFA3
:10EFF00091E091878087E3E7F6E043E752E05183B1
:10F00000408337832683918780871092F501109281
:10F01000F4018DE796E00E9426F683E796E00E94D1
:10F0200026F600E021E040E062E28EE492E00E94F9
:10F0300051F38BED97EF909365028093640201E0AA
:10F0400020E040E060E081E392E00E9451F3E1E3E0
:10F05000F2E08CE082838CE596EF978B868B21E043
:10F0600041E062E284E192E00E9451F388E696EF8B
:10F0700090932B0280932A0200E021E041E062E2BB
:10F0800087EF91E00E9451F386E896EF90930E028D
:10F0900080930D020F910895882349F0813818F468
:10F0A0008093F301089580E88093F301089581E04F
:10F0B0008093F3010895CF93C82F0E9441F38823D2
:10F0C00059F08DE796E00E942CF68111FACF6C2F53
:10F0D0008DE796E00E94F6F590E080E0CF910895EC
:10F0E00083E796E00E941BF6811106C083E796E055
:10F0F0000E9408F690E008958FEF9FEF08950F9318
:10F100001F93CF93DF938C0105C0C8010E9465F95E
:10F11000882339F0C8010E9470F8EC01CF3FDC076A
:10F12000A1F3CE01DF91CF911F910F91089583E755
:10F1300096E008958DE796E00895FF920F931F9350
:10F14000CF93DF93F82E192F062F0E9441F38111E0
:10F1500007C081E0DF91CF911F910F91FF9008953B
:10F160008DE796E00E943DF60817190691F388F3A3
:10F17000002381F0CF2DD12FCE0101960150080F31
:10F18000192F111D69918DE796E00E94F6F5C017C1
:10F19000D107C1F780E0DF91CF911F910F91FF90D0
:10F1A0000895AF92BF92CF92DF92EF92FF920F93AA
:10F1B0001F93CF93DF93C0918706AC2EB12C47E00D
:10F1C000C49F90011124F901E857F94F6F01FEE047
:10F1D000CF9FE0011124C356D94F8501000F111FA5
:10F1E000000F111F000F111F98012A193B09A901D7
:10F1F0004857594F7A0191E0FA019083220F331F4B
:10F20000F901E356F94F8130F1F58AEB99EF9187D7
:10F2100080878FED99EF9387828783E083831586BC
:10F2200014860E948EFAF701928381830E948BFAE2
:10F23000F70194838383F801EA19FB09EE0FFF1F9E
:10F24000E356F94FD586C4868091870681110CC09C
:10F25000D093E20AC093E10AD093E40AC093E30A90
:10F26000D093E60AC093E50A8F5F80938706CE01AC
:10F27000DF91CF911F910F91FF90EF90DF90CF9092
:10F28000BF90AF9008958BE598EF918780878FE7C7
:10F2900098EF9387828783E08383158614868DE9B0
:10F2A00098EFF701968385830E949AF8F70192837D
:10F2B00081830E9497F8F70194838383BCCFDC019C
:10F2C0001C96ED91FC9160830895DC011C96ED91F4
:10F2D000FC9180810895DC011C96ED91FC91838165
:10F2E00094810C943DF61F93CF93DF93EC01162F7E
:10F2F00089EC98E09093D80A8093D70A20E032E016
:10F300003093DE0A2093DD0A8FEF91E09093E00ABC
:10F310008093DF0A49EC56E05093CE0A4093CD0A21
:10F320003093D40A2093D30A9093D60A8093D50AB7
:10F3300087ED9AE00E9426F68DEC9AE00E9426F670
:10F340001092C90086E08093CA0011110FC010927C
:10F35000C800D093CD00C093CC0088E98093C90049
:10F3600090E080E0DF91CF911F91089582E080933B
:10F37000C800EFCFCF93C82F8DEC9AE00E942CF6F7
:10F380008111FACF6C2F8DEC9AE00E94F6F58091F6
:10F39000C90080628093C90090E080E0CF91089519
:10F3A00087ED9AE00E941BF6811106C087ED9AE076
:10F3B0000E9408F690E008958FEF9FEF08950F9355
:10F3C0001F93CF93DF938C0105C0C8010E9465F99C
:10F3D000882339F0C8010E94D0F9EC01CF3FDC0747
:10F3E000A1F3CE01DF91CF911F910F9108951F924C
:10F3F0000F920FB60F9211240BB60F922F933F93DB
:10F400004F935F936F937F938F939F93AF93BF932C
:10F41000EF93FF934C9B18C08091C9008F7D809320
:10F42000C900FF91EF91BF91AF919F918F917F9113
:10F430006F915F914F913F912F910F900BBE0F9065
:10F440000FBE0F901F9018958DEC9AE00E941BF64E
:10F450008111E2CF8DEC9AE00E9408F68093CE00F5
:10F46000E0CFCF938091C80083FF13C08091C90A79
:10F470009091CA0AA091CB0AB091CC0A0196A11D25
:10F48000B11D8093C90A9093CA0AA093CB0AB09386
:10F49000CC0AC091CE00E091C706F091C806309723
:10F4A00031F08C2F0995813011F0CF91089587EDBF
:10F4B0009AE00E942CF68111F8CF6C2F87ED9AE02C
:10F4C000CF910C94F6F51F920F920FB60F92112464
:10F4D0000BB60F922F933F934F935F936F937F934E
:10F4E0008F939F93AF93BF93EF93FF930E9431FA53
:10F4F000FF91EF91BF91AF919F918F917F916F910C
:10F500005F914F913F912F910F900BBE0F900FBEC7
:10F510000F901F90189587ED9AE008958DEC9AE072
:10F520000895AF92BF92CF92DF92EF92FF920F9326
:10F530001F93CF93DF937C01EB018A010E94D3F0EC
:10F540008F3F9807D1F04B9711F082E017C00E94CF
:10F55000D3F06C018FEFC816D80679F0F801C0829D
:10F560000E94D3F08C018F3F980739F0188289836D
:10F570000E94D3F05C01019661F481E0DF91CF91AC
:10F580001F910F91FF90EF90DF90CF90BF90AF90C1
:10F590000895888199818A299B29998388830E946B
:10F5A000D3F08F3F980749F30E97E1F485E1C82621
:10F5B000C026CA2488819981892BB1F087010CC0AB
:10F5C000F80181938F01C826CF018E199F092881E8
:10F5D00039818217930740F40E94D3F08F3F980738
:10F5E00079F7CBCF83E0CACF0E94D3F08F3F980743
:10F5F00021F2C816190611F480E0C0CF84E0BECF16
:10F60000CF92DF92EF92FF920F931F93CF93DF93EE
:10F61000C82E092F7B01D42E8BE10E94CCF08D2DBA
:10F620000E94CCF08F2D0E94CCF01D2D1E258E2D1A
:10F630000E94CCF08EE00E94CCF085E118271F25B7
:10F64000E114F10461F0CC2DD02FEC0EFD1E0991D8
:10F65000802F0E94CCF01027EC16FD06C1F7812FF9
:10F660000E94CCF08D2DDF91CF911F910F91FF90D3
:10F67000EF90DF90CF9008952F923F924F925F923C
:10F680006F927F928F929F92AF92BF92CF92DF92B2
:10F69000EF92FF920F931F93CF93DF93CDB7DEB717
:10F6A000C05AD1400FB6F894DEBF0FBECDBF209137
:10F6B000B4013091B50145E150E061E070E083E4D0
:10F6C00091E00E94FDFE20E0812C412C512C320162
:10F6D000E2E02E2E312C99249394920E3DEC239F40
:10F6E000812D112486958695982F990F990F890F52
:10F6F000281709F47CC0AE0140565E4FBE01625629
:10F700007E4FCE0101960E9491FA082F811173C09D
:10F710001981133109F484C170F5163009F45AC205
:10F7200008F0ADC0123009F460C1133009F400C113
:10F73000113079F5EBE0F0E0C256DE4FF983E88353
:10F74000CE59D1401A8288E08B8381E48C8386E590
:10F750008D8382E58E8389E48F8383E5888780E5C6
:10F7600089878FE58A8782E38B876BE070E0412C85
:10F77000512C32012CC0183109F4F0C108F490C0AA
:10F780001B3109F4D5C11D3109F4EEC01A3109F459
:10F79000FDC11F921F932BE831E03F932F9380917F
:10F7A000B5018F938091B4018F930E9453F1C2569B
:10F7B000DE4F39822882CE59D14080EC8A830F9067
:10F7C0000F900F900F900F900F9062E070E0C05676
:10F7D000DE4F4881C05AD140CE0101960E9400FB05
:10F7E000C056DE4F8883C05AD140292D74CF84E0A3
:10F7F0000E940EF380CF81E2C25EDE4F8883CE513D
:10F80000D1408AE0C15EDE4F8883CF51D140C05ED7
:10F81000DE4F1882C052D1406091B4017091B501A1
:10F82000CE01825E9E4F0E94D6FE839485E08815AD
:10F83000E0F62091B4013091B50144E150E061E07F
:10F8400070E087E991E00E94FDFEC056DE4F0FB6E2
:10F85000F894DEBF0FBECDBFDF91CF911F910F9106
:10F86000FF90EF90DF90CF90BF90AF909F908F90E0
:10F870007F906F905F904F903F902F900895103140
:10F8800008F487CF123108F4B0C0C256DE4F398277
:10F890002882CE59D14080EC8A8362E070E097CF15
:10F8A000153109F4BDC018F0163109F072CF2A8164
:10F8B0003B81322723273227B9016D5F7F4FC25624
:10F8C000DE4F79836883CE59D1401A82143109F40E
:10F8D000ADC1FE013396BF01620F731FD301C20198
:10F8E00081BDC92EDA2EEB2EFF24C2BC0196A11DCC
:10F8F000B11DF89A40B541936E177F0789F7C9018A
:10F900000197B0E0A0E00196A11DB11D480E591E5F
:10F910006A1E7B1EA3E0B0E0AC0FBD1FA20FB31F99
:10F92000C256DE4F68817981CE59D1401C924FCFAB
:10F930008A81803909F4BDC108F4A2C1823909F471
:10F940006AC108F4B8C1843909F09EC105EF83E0AB
:10F9500090E0C256DE4F99838883CE59D1401A82F7
:10F960000B8363E070E033CF8D81803309F47DC178
:10F970009E81803509F446C1883509F48EC12885F9
:10F980001F922F932F811F922F931F929F931F924D
:10F990008F938C811F928F938B811F928F938A817B
:10F9A0001F928F9329E531E03F932F938091B5010A
:10F9B0008F938091B4018F930E9453F18D810FB684
:10F9C000F894DEBF0FBECDBF27E030E0C256DE4F59
:10F9D00039832883CE59D1401A821B828C831D82A1
:10F9E0000E831F8267E070E0F2CEC256DE4F39828E
:10F9F0002882CE59D1401A82C056DE4F4881C05A63
:10FA0000D14062E070E0CE0101960E9400FBC0563A
:10FA1000DE4F8883C05AD140113109F40ACFE5CEB8
:10FA2000AA80BB80BA24AB24BA24133109F04BC09E
:10FA3000411490EE590691E06906710408F043C044
:10FA40008FB7F89493E0F20160925B0090935700B7
:10FA5000E89507B600FCFDCF91E190935700E8953B
:10FA60008FBF0FB7F894A114B104C9F0DE011B9643
:10FA700090E080E011E02D913D91B301A201480F8B
:10FA8000591F611D711D0901FA0160935B001093FC
:10FA90005700E895112402968A159B0560F385E0CE
:10FAA000F20160925B0080935700E89507B600FC76
:10FAB000FDCF81E180935700E8954A0C5B1C611CE7
:10FAC000711C0FBF2DC0D301C201B695A7959795A4
:10FAD00087958C01A114B10419F17E01EBE0EE0EC3
:10FAE000F11C6501C80ED91EF70161917F01C801A3
:10FAF0000E943BFF0F5F1F4FC016D106A9F7F1E030
:10FB0000AF1AB108C501B0E0A0E0880F991FAA1F85
:10FB1000BB1F0296A11DB11D480E591E6A1E7B1EF9
:10FB20001A82C256DE4F68817981CE59D1404FCEBC
:10FB30008D81882309F464C0813009F4B8C085E060
:10FB4000E4E0F0E0C256DE4FF983E883CE59D140BD
:10FB50001A828B831C8264E070E039CE8B81803501
:10FB600009F479C089E0E3E0F0E0809357008491E4
:10FB700024E030E0C256DE4F39832883CE59D1408D
:10FB80001A828B831C8264E070E021CE8BE791E0C7
:10FB90009F938F938091B5018F938091B4018F9340
:10FBA0000E9453F124E030E0C256DE4F39832883AF
:10FBB000CE59D1401A8289E0E1E0F0E0809357000D
:10FBC00084918B831C820F900F900F900F9064E0B4
:10FBD00070E0FDCD6A817B818C819D810E9463FEF6
:10FBE0002B013C01440C551C661C771CC256DE4F91
:10FBF00039822882CE59D1401A8262E070E0E7CD86
:10FC00008EE19ECF911109C009E0F0E0E0E00093A1
:10FC100057000491D9CE0AE09ACE983009F0AFCEC1
:10FC200009E0F101009357000491CECEDE01139656
:10FC30006BBEF201879196918C931296FD013197DC
:10FC4000908382E0480E511C611C711C22503109C6
:10FC500079F71C92BCCD8C81883079F189E0F0E095
:10FC6000E0E080935700849183CF9F810EE1992338
:10FC700009F4AACE07E9913009F4A6CE05E0A4CE96
:10FC80008058823008F463CE6091B4017091B50160
:10FC900085E590E00E94A6FE5ACE983009F06FCE1E
:10FCA00009E0E3E0F0E00093570004918DCE87E98E
:10FCB00047CF0FE04CCE02E04ACE89E0F1018093BD
:10FCC0005700849155CF692796276927782787277A
:10FCD00078270895CF93DF93EC012B8120FF1AC082
:10FCE00026FF0CC02F7B2B838E819F8101969F83E3
:10FCF0008E838A8190E0DF91CF91089522FF18C012
:10FD0000E881F9818081082E000C990B009729F475
:10FD100020622B838FEF9FEFEECF3196F983E8833C
:10FD20002E813F812F5F3F4F3F832E839927E3CF63
:10FD3000EA85FB85099597FFF3CF2B81019621F08A
:10FD400080E2822B8B83E6CF80E1FBCF0F931F9362
:10FD5000CF93DF93182F092FEB018B8181FD09C011
:10FD60001FEF0FEF812F902FDF91CF911F910F91F8
:10FD7000089582FF14C02E813F818C819D812817B8
:10FD800039073CF4E881F981CF0101969983888392
:10FD900010838E819F8101969F838E83E3CFE885B8
:10FDA000F985812F0995892BA1F3DACFEF92FF9284
:10FDB0000F931F93CF93DF937B01DB0113962C915D
:10FDC000EC0110E000E021FD0DC00FEF1FEF0DC0B2
:10FDD000D7011896ED91FC91B7010995892B11F087
:10FDE0000FEF1FEF89918111F3CFC801DF91CF9100
:10FDF0001F910F91FF90EF9008958F929F92AF9275
:10FE0000BF92CF92DF92EF92FF920F931F93CF9307
:10FE1000DF935B014A017901D90113962C91D0E05F
:10FE2000C0E021FF1AC0C815D905B9F08C016C01DA
:10FE3000CA0CDB1C0CC00F5F1F4FD7011896ED9149
:10FE4000FC91B701DC018C910995892B31F4C80133
:10FE50000C151D0581F72196E6CFCE01DF91CF91DC
:10FE60001F910F91FF90EF90DF90CF90BF90AF90D8
:10FE70009F908F900895262FF999FECF1FBA92BDBB
:10FE800081BD20BD0FB6F894FA9AF99A0FBE01967B
:06FE90000895F894FFCF75
:10FE9600010542533220426F6F746C6F6164657264
:10FEA6000A004170706C69636174696F6E20746FCB
:10FEB60020424C2066726F6D205553420A00425311
:10FEC6003220426F6F746C6F616465723A20656EA2
:10FED600640A00456E746572696E672053544B352B
:10FEE6003030206D6F64650A00434D445F535049BE
:10FEF6005F4D554C544920753A202D202D202D203C
:10FF06003A202D202D202D202D0A00524541442037
:10FF16004C4F434B20424954530A00434D44202D35
:10FF2600204641494C0A004C656176696E6720534C
:0CFF3600544B353030206D6F64650A00BC
:040000031000E00009
:00000001FF
